{
  "contractName": "BridgeA",
  "abi": [
    {
      "inputs": [
        {
          "internalType": "address",
          "name": "_tokenA",
          "type": "address"
        },
        {
          "internalType": "address",
          "name": "_bridgeB",
          "type": "address"
        }
      ],
      "stateMutability": "nonpayable",
      "type": "constructor"
    },
    {
      "inputs": [],
      "name": "bridgeB",
      "outputs": [
        {
          "internalType": "address",
          "name": "",
          "type": "address"
        }
      ],
      "stateMutability": "view",
      "type": "function"
    },
    {
      "inputs": [],
      "name": "tokenA",
      "outputs": [
        {
          "internalType": "address",
          "name": "",
          "type": "address"
        }
      ],
      "stateMutability": "view",
      "type": "function"
    },
    {
      "inputs": [
        {
          "internalType": "uint256",
          "name": "amount",
          "type": "uint256"
        }
      ],
      "name": "deposit",
      "outputs": [],
      "stateMutability": "nonpayable",
      "type": "function"
    },
    {
      "inputs": [
        {
          "internalType": "uint256",
          "name": "amount",
          "type": "uint256"
        }
      ],
      "name": "withdraw",
      "outputs": [],
      "stateMutability": "nonpayable",
      "type": "function"
    }
  ],
  "bytecode": "0x608060405234801561001057600080fd5b50604051610597380380610597833981810160405281019061003291906100cf565b816000806101000a81548173ffffffffffffffffffffffffffffffffffffffff021916908373ffffffffffffffffffffffffffffffffffffffff16021790555080600160006101000a81548173ffffffffffffffffffffffffffffffffffffffff021916908373ffffffffffffffffffffffffffffffffffffffff1602179055505050610154565b6000815190506100c98161013d565b92915050565b600080604083850312156100e257600080fd5b60006100f0858286016100ba565b9250506020610101858286016100ba565b9150509250929050565b60006101168261011d565b9050919050565b600073ffffffffffffffffffffffffffffffffffffffff82169050919050565b6101468161010b565b811461015157600080fd5b50565b610434806101636000396000f3fe608060405234801561001057600080fd5b506004361061004c5760003560e01c80630fc63d10146100515780632e1a7d4d1461006f578063b6b55f251461008b578063ca9f70f2146100a7575b600080fd5b6100596100c5565b604051610066919061030d565b60405180910390f35b610089600480360381019061008491906102c6565b6100e9565b005b6100a560048036038101906100a091906102c6565b61019a565b005b6100af61024d565b6040516100bc919061030d565b60405180910390f35b60008054906101000a900473ffffffffffffffffffffffffffffffffffffffff1681565b60008054906101000a900473ffffffffffffffffffffffffffffffffffffffff1673ffffffffffffffffffffffffffffffffffffffff1663a9059cbb33836040518363ffffffff1660e01b815260040161014492919061035f565b602060405180830381600087803b15801561015e57600080fd5b505af1158015610172573d6000803e3d6000fd5b505050506040513d601f19601f82011682018060405250810190610196919061029d565b5050565b60008054906101000a900473ffffffffffffffffffffffffffffffffffffffff1673ffffffffffffffffffffffffffffffffffffffff166323b872dd3330846040518463ffffffff1660e01b81526004016101f793929190610328565b602060405180830381600087803b15801561021157600080fd5b505af1158015610225573d6000803e3d6000fd5b505050506040513d601f19601f82011682018060405250810190610249919061029d565b5050565b600160009054906101000a900473ffffffffffffffffffffffffffffffffffffffff1681565b600081519050610282816103d0565b92915050565b600081359050610297816103e7565b92915050565b6000602082840312156102af57600080fd5b60006102bd84828501610273565b91505092915050565b6000602082840312156102d857600080fd5b60006102e684828501610288565b91505092915050565b6102f881610388565b82525050565b610307816103c6565b82525050565b600060208201905061032260008301846102ef565b92915050565b600060608201905061033d60008301866102ef565b61034a60208301856102ef565b61035760408301846102fe565b949350505050565b600060408201905061037460008301856102ef565b61038160208301846102fe565b9392505050565b6000610393826103a6565b9050919050565b60008115159050919050565b600073ffffffffffffffffffffffffffffffffffffffff82169050919050565b6000819050919050565b6103d98161039a565b81146103e457600080fd5b50565b6103f0816103c6565b81146103fb57600080fd5b5056fea264697066735822122001cacdd3a1c54ec6dc293492e80a497bc0f399a60af53906003444315792c27364736f6c63430008000033",
  "immutableReferences": {},
  "source": "// contracts/BridgeA.sol\npragma solidity ^0.8.0;\n\nimport \"@openzeppelin/contracts/token/ERC20/IERC20.sol\";\n\ncontract BridgeA {\n    address public tokenA;\n    address public bridgeB;\n\n    constructor(address _tokenA, address _bridgeB) {\n        tokenA = _tokenA;\n        bridgeB = _bridgeB;\n    }\n\n    function deposit(uint256 amount) external {\n        IERC20(tokenA).transferFrom(msg.sender, address(this), amount);\n        // Implement logic to lock tokens and mint wrapped tokens on the other chain\n        // (This requires coordination with the other chain's bridge contract)\n    }\n\n    function withdraw(uint256 amount) external {\n        // Implement logic to burn wrapped tokens on the other chain and unlock tokens here\n        // (This requires coordination with the other chain's bridge contract)\n        IERC20(tokenA).transfer(msg.sender, amount);\n    }\n}",
  "sourcePath": "/Users/dev/college/lab1Work/contracts/BridgeContractA.sol",
  "compiler": {
    "name": "solc",
    "version": "0.8.0+commit.c7dfd78e.Emscripten.clang"
  },
  "schemaVersion": "3.4.16",
  "updatedAt": "2023-10-01T03:23:56.530Z",
  "devdoc": {
    "kind": "dev",
    "methods": {},
    "version": 1
  },
  "userdoc": {
    "kind": "user",
    "methods": {},
    "version": 1
  }
}